:020000040000FA
:0402FC00FFFFFFFF02
:020000040000FA
:102000001853001065220000F17E0000F37E0000EE
:10201000F57E0000F77E0000F97E00000000000061
:10202000000000000000000000000000FB7E000037
:10203000FD7E000000000000FF7E0000EF7E00003B
:102040007F220000B34D0000E34E0000ED4E000083
:102050005F500000BB520000DB5300007F220000F5
:102060007F2200007F2200007F2200007F220000EC
:102070007F2200007F2200007F2200007F220000DC
:102080007F2200007F2200007F2200007F220000CC
:102090007F2200007F2200007F2200007F220000BC
:1020A0007F2200007F2200007F2200007F220000AC
:1020B0007F2200007F2200007F2200007F2200009C
:1020C0007F2200007F2200007F22000000F002F843
:1020D00000F0B4F80AA090E8000C82448344AAF10E
:1020E0000107DA4501D100F0A9F8AFF2090EBAE80C
:1020F0000F0013F0010F18BFFB1A43F0010318473C
:10210000002601004026010010F8013B0A4413F0AC
:10211000030408BF10F8014B1D1108BF10F8015B44
:10212000641E05D010F8016B641E01F8016BF9D133
:10213000002D15D010F8014B03F00C030C2BA1EB74
:1021400004040ABF10F8013BA4EB8314A4EB03249E
:1021500005F1010314F8016B5B1E01F8016BF9D561
:10216000914238BF10F8013BD1D3704700230024BF
:1021700000250026103A28BF78C1FBD8520728BF97
:1021800030C148BF0B6070476E290CF0F980702990
:102190000BF04186662911F02587652911F0228709
:1021A000672911F01F876129AFF3008003681B0ABC
:1021B00028BF41F0800169290BF0B28564290BF03A
:1021C000AF8575290BF0AC856F290CF0D883782981
:1021D0000BF00D86E9290CF07383E4290CF0708371
:1021E000F5290CF06D83EF290CF0D583F8290BF05D
:1021F0000C860368DB0928BF41F0800163290CF0DD
:102200006D8473290CF07284E3290CF07D84F3292A
:102210000CF08284002070471FB50CF0C7FB04004F
:102220000020002110F0A2FC401C60600020002172
:1022300010F086FCE0601FBD10B510BD0CF006FD6F
:102240001146FFF7E9FF05F085FE0CF02DFD03B404
:10225000FFF7F2FF03BC0CF031FD0000D0F800D016
:10226000D0F804F00948804709480047FEE7FEE738
:10227000FEE7FEE7FEE7FEE7FEE7FEE7FEE7FEE736
:1022800004480549054A064B704700005F230000DB
:10229000CD200000180B0820185300101813082038
:1022A000184F00105248D0F888106FEA11618A0761
:1022B0005049D0F80C2102F003020BD02AB1012AB8
:1022C0003FD0022A42D0032A2BD1D0F804014A4A37
:1022D000C0B240E02AB1012A11D0022A22D0032A3A
:1022E0001FD150F8882FC36FC2F30742DBB2521CD4
:1022F0005B1C00685A43C0F30E00404B0CE050F8E2
:10230000882FC36FC2F30742DBB2521C5B1C00680C
:102310005A433B4BC0F30E00401C5843B0FBF2F055
:102320000860704750F8882FC36FC2F30742DBB2D2
:10233000521C5B1C00685A43C0F30E00401C000492
:10234000ECE7D0F804012F4AC0B204E0D0F8040151
:102350004FF40042C0B2401CB2FBF0F0E0E730B5F1
:1023600023482021C0F8A011D0F8A011890603D578
:10237000D0F8A0114906FBD50324C0F80441224936
:10238000C0F8A8112149C0F8AC110122C0F80C21F5
:102390001F49C0F88410AA23C0F88C305521C0F81A
:1023A0008C10C0F88020C0F88C30C0F88C1000BFB2
:1023B000D0F888506D01FBD5C0F88040C0F88C3053
:1023C000C0F88C10D0F8881011F0407FFAD0C0F817
:1023D00008211049C0F8C4100021C0F8C81144F207
:1023E0003A0101600C494FF40050086030BD000014
:1023F00000C00F400000001000093D0000127A00EC
:1024000000366E01001BB7005551515555545554B7
:10241000630005005E87280008ED00E010B53E4A25
:102420000323202802D300BFA0F1200010D2D2F84D
:10243000A84103FA00F324EA0304C2F8A841D2F841
:10244000A83101FA00F143EA0103C2F8A83110BD36
:10245000D2F8AC4103FA00F324EA0304C2F8AC4119
:10246000D2F8AC3101FA00F143EA0103C2F8AC3111
:1024700010BD2949202802D2D1F8A81102E0D1F8D4
:10248000AC112038C14001F003007047234900B56A
:102490000A68FFF7EEFF30B1012807D0022805D007
:1024A000032803D101E0042000E00820B2FBF0F093
:1024B00000BD194A1A4B012907D0002904D152F84E
:1024C000C41F834319401160704752F8C41F18405D
:1024D0000143F8E710490020C1F8C00030BF704741
:1024E0001049042008600C490820C1F8C00030BF22
:1024F00070470C490420086007490920C1F8C00052
:1025000030BF704707490420086003490320C1F821
:10251000C00030BF7047000000C00F400000001036
:10252000DEF7EFEF10ED00E02849012806D0002883
:1025300003D1886A20F0080088627047886A40F0FA
:102540000800F9E7012800D1052201B90A221F4835
:10255000C2677047F0B502784178857852001B4E0B
:10256000102901D31039521C4900032356F8224088
:1025700003FA01F7BC438D402C4346F82240027811
:10258000124E4178C57852004036102901D31039D7
:10259000521C490056F822408B409C438D402C43EE
:1025A00046F82240017843780479084801226830CF
:1025B000012C50F8214002FA03F204D034EA02045C
:1025C00040F82140F0BD1443FAE7000000C002408B
:1025D0002DE9FF5F894600210391F94905468842AC
:1025E00001D106200DE0F7498D4201D1082008E015
:1025F000F5498D4201D1302003E0F4498D4202D1EA
:102600003220FFF743FF00218B460C468A460F46D7
:102610000291012601090007CDE900104FF0FF38B3
:1026200001E0002723E0DDE90023F01900FB09FEAB
:10263000A3FB060C02FB06C2002103FB012172462C
:1026400000230BF0A5FAB0F1004F01D94042491C1C
:102650004A1EB2F5803F09D2404507D25FEA000822
:102660004FF0000A0C46B346029708D07F1CB742D1
:10267000D9D3B8F1000F02D0761C0F2ED1D954EA6D
:102680000A0014D0029A00210BEB0203A3FB0427DB
:1026900001FB0471009803FB0A1300FB0BF00021FF
:1026A0000BF076FA814506D9A9EB000005E0002081
:1026B00004B0BDE8F09FA0EB090064214843B0FBE3
:1026C000F9F0032801D30398F2E7BE488542287B3E
:1026D00040F0800028734FEA142040EA0A60287115
:1026E0002C70287B00F07F0028734FEA0B1006D176
:1026F0000299C0B201F00F010843A86205E00299F7
:1027000001F00F01084385F8280001200390CFE76E
:102710002DE9F0470E460446A949AB48DFF8ACA2C4
:102720000027A84D4FF080084FF007098C4202D1D6
:102730000121082011E0AC4204D101211020FFF753
:10274000B8FE06E0844204D101210806FFF7B1FE7D
:1027500006E0544504D101214806FFF7AAFE1DE01A
:10276000AC421BD184F80890277200E02078207DCD
:10277000C007FBD184F83080207D8006FCD584F82A
:102780003070676027732762277484F84C7084F870
:10279000547084F85070207E207D16E084F80890F4
:1027A000277200E02078207DC007FBD184F83080BC
:1027B000207D8006FCD584F830706760277327621F
:1027C000207D544501D184F8247020463168FFF7FC
:1027D000FFFE207B717900F0C00029B1012910D0E3
:1027E000022911D040F003003179C1B140F0080056
:1027F000012914D002290AD003290BD004290ED1B3
:102800000BE040F00100EFE740F00200ECE740F0A1
:10281000100004E040F0200001E040F03000B17909
:10282000012901D140F004002073BDE8F087654A1A
:10283000012904D010F8302F00210170704710F8E2
:10284000301F41F08001F8E770B504460021FFF722
:10285000EEFF5B4A5B495C485C4D944202D100212B
:10286000082011E08C4204D100211020FFF721FE46
:1028700005E0844203D100214FF0807004E0AC42B7
:1028800006D100214FF00070BDE87040FFF711BE87
:1028900070BD4FF416510160032141710021017197
:1028A00081717047474A0170704746490078704708
:1028B00000B5027D920601D4002000BD0978FFF723
:1028C000F1FF012000BD3E490A7D920601D400209F
:1028D00070470870012070473A490A7D920601D47A
:1028E00000207047087001207047F0B5012B0646A4
:1028F0000C464FF000031DD15F1E0EE03D4601E087
:10290000D5B16D1E307DC007FAD0ADB13046FFF7AE
:10291000CCFF521E04F8010B5B1C002AEED10BE029
:10292000307DC00708D03046FFF7BFFF521E04F8C5
:10293000010B5B1C002AF3D11846F0BD2149017B35
:1029400041F040010173704710B5072914D2DFE848
:1029500001F00406080A0C0E110001230CE002230A
:102960000AE0042308E0082306E0802304E04FF493
:10297000807301E04FF400731249012A05D08842A8
:10298000416805D140F28F3204E04168194303E009
:1029900040F207329A431140416010BD0949884214
:1029A00001D1087D7047007D7047806840F2CF31CB
:1029B00008407047007D40060AD50020704700009F
:1029C00000C00040000001400080094000C00940F4
:1029D0000120F3E7CB78012223B1012B06D0022B93
:1029E00006D0C1224B78012B04D005E04122F9E743
:1029F0008122F7E742F004020B78012B01D142F06B
:102A000002028978012901D142F0080202F0CF01C7
:102A10000172D3E700218170C17001210170417002
:102A2000CCE730B50023012A08D10C78012C00D165
:102A300002234978012901D143F00403664D102493
:102A40000021A8420FD1012A0BD1027B42F0800263
:102A5000027301700171017B21F0800101738462B6
:102A60000FE0016230BD012AFBD1027B42F08002FF
:102A7000027301700171017B21F08001017380F804
:102A8000284043F00101ECE7534A026A0A4302621C
:102A900094E7012907D0002990D110F8241F01F0F4
:102AA0003D0101708AE710F8241F41F00201F8E7A8
:102AB000012910F8241F03D001F03E0101707DE7C9
:102AC00041F00101FAE7CA0010F8241F21F0380193
:102AD000114301F03F0141F0040101706EE7002352
:102AE00011B1012903D101E0012300E00223017C9F
:102AF000012A04D0F3229A43114001745EE719437E
:102B0000FBE721B1012904D0022905D103E01023FC
:102B100002E0402300E08023017C012A04D0F3225C
:102B20009A431140017449E71943FBE7007E45E7EA
:102B3000CB780022012B0CD14B791022012B00D134
:102B400030220B79012B01D142F00802CB7980F8B9
:102B500054300B78012B01D142F001028B78012B0C
:102B600004D18B7942F0040280F85030497809B9D9
:102B700042F0020280F84C20017B41F038010173E1
:102B80001CE7012910F84C1F03D041F0020101702D
:102B900014E721F00201FAE730B5044663B1257B62
:102BA00025F01000207301232046FFF781FE217DD0
:102BB0004906FCD5257330BD0123FFF779FE217D41
:102BC0004906FCD530BD03B501231A4601A9FFF71C
:102BD000E3FF0CBD0023DFE7000001400068012295
:102BE0008A40D1B2084000D001207047006801221D
:102BF000091D8A40D1B2084000D00120704701224F
:102C00008A40026070470122091D8A4002607047B5
:102C100010B100204870704701200870486070476C
:102C20002DE9F05F4FF0402BDFF898A2A64EA74F9A
:102C3000154604468946584506D101210220FFF772
:102C400038FC0021022019E0544506D1012104205E
:102C5000FFF72FFC0121042010E0B44206D101212E
:102C60008805FFF726FC00212C2007E0BC4207D195
:102C70000121C805FFF71DFC00212E20FFF7CEFB28
:102C8000A06A20F00300A062A06AA0624FF00008D2
:102C9000C4F80880C4F81080C4F80C80606840F064
:102CA00002006060606820F0020060605FEA090076
:102CB0004FF0FF3907D0A06A20F00C00A0626878BE
:102CC000012837D03AE0287820B148465C4503D146
:102CD00000200FE068682AE0514622468C4201D16C
:102CE000012007E01146B24201D1022002E0B942C0
:102CF00000D103206D6830B1012806D0022806D02B
:102D000003280AD105E0022004E0042002E02C2080
:102D100000E02E20FFF7BAFB0146A1FB050208FBED
:102D2000052201FB08216A4A00230AF031FF401EF8
:102D3000E06003E0A06A40F00400A062C4F80090E4
:102D4000BDE8F09F00214160B0F1402F05D05D4902
:102D5000884205D1002104200CE00021022009E076
:102D600059494FF48002884202D05849884203D121
:102D700000211046FFF79DBB70470129416803D031
:102D800021F001014160704741F00101FAE741681B
:102D900041F002014160416821F002014160704749
:102DA00030B50A7832B1012A07D0022A08D0032AA6
:102DB00009D0FEE78A68826107E08A68C26104E0A0
:102DC0008A68026201E08A68426242690B7803EB1A
:102DD00043040723A3409A4342614B7801223BB14D
:102DE00043690C7804EB440402FA04F4234343617E
:102DF000CB7843B143690C7804EB4404641C02FAB9
:102E000004F4234343618B783BB143690C7804EBB2
:102E10004404A41CA24013434361C36B0C780422F6
:102E200002EB44050324AC40A343C3630B79097848
:102E300003F0030302EB41018B40C16B0B43C363FF
:102E400030BD31B1012906D0022906D0032906D0B0
:102E5000FEE782617047C26170470262704742625A
:102E6000704710B5826A0B7803EB43040723A34035
:102E70009A4382624B7801223BB1836A0C7804EB5F
:102E8000440402FA04F4234383628B7843B1836AD7
:102E90000C7804EB4404641C02FA04F423438362B8
:102EA000CB78002B07D0836A097801EB4101891C9C
:102EB0008A401343836210BD09B1006B7047C06A3A
:102EC00070470000008000400000094000400940B9
:102ED00040420F0070B5D44DD44C0A2278B101287D
:102EE0000CD1B1FBF2F010F011F902460B460020B4
:102EF00029460FF03FFF10F0C5F8E08170BDB1FB2F
:102F0000F2F010F003F902460B46002029460FF0BC
:102F100031FF10F0B7F880B2A0813228EED2322013
:102F2000A08170BDC14A18B1012800D1516170471C
:102F300011617047010241EA102080B2704730B53C
:102F400002464FF6FF70BA4D08E000BF12F8013B91
:102F5000040A4340DBB235F813006040491E89B2D1
:102F6000F4D230BD08B504290ED34218891E32F8B8
:102F7000022CADF8002089B2FFF7E1FFBDF8001088
:102F8000884201D1012008BD002008BD2DE9F04193
:102F9000A64CA84F1546012658B1A7486288104490
:102FA0002A460BF04AF86088284460807E60BDE8BD
:102FB000F081A248228810442A460BF03EF820886F
:102FC000284420803E60F2E770B50026994D974C6A
:102FD000322198B1E089B0FBF1F1686808B1686806
:102FE000401E814226D261889348FFF7BBFF10B391
:102FF000626972B36188904890472AE0A089B0FB6B
:10300000F1F1286808B12868401E814212D2208858
:10301000C01E81B28948FFF7A5FF20B1226912B115
:103020002188864890474FF4005184480BF07CF883
:1030300026802E6070BD82480068007848B181A06B
:1030400001F020FC61887C4801F041FC80A001F087
:1030500019FC4FF4807178480BF066F866806E605A
:1030600070BD724A38B1012804D17A4B5089195485
:10307000401C50817047784B10891954401C1081B6
:1030800070470A0242EA11218AB208B5674960B165
:10309000012809D1ADF800206E4A4889BDF80030FA
:1030A0000244801C1380488108BDADF800206A4AA4
:1030B0000889BDF800300244801C1380088108BDD7
:1030C00008B55A4A60B1012809D1ADF8001061492C
:1030D0005089BDF800300144801C0B80508108BD30
:1030E000ADF800105C491089BDF800300144801C27
:1030F0000B80108108BD70B54C4C154658B10128A5
:1031000008D15448628910442A460AF096FF608923
:103110002844608170BD5048228910442A460AF034
:103120008CFF20892844208170BD10B53F4C024699
:103130004848618903F0B4FB0020608110BD70B580
:103140000C4601461D4616460120FFF78AFF214620
:103150000120FFF786FF31460120FFF792FF294645
:103160000120FFF78EFFBDE870400020DDE710B5BD
:103170002E4C0B4602466189364803F06BFC00205A
:10318000608110BD2DE9F0410D4601461E461746EF
:103190000120069CFFF765FF29460120FFF761FF2C
:1031A00039460120FFF76DFF31460120FFF769FF27
:1031B0002146BDE8F0410020D9E770B51B4C002541
:1031C000B8B1012814D161892248FFF7B8FE014641
:1031D0000120FFF775FF1F496289A1F500700AF011
:1031E0002CFF6189E1801D4802F06AFAE580658163
:1031F00070BD21891848FFF7A2FE01460020FFF7A5
:103200005FFF032216490020FFF775FF124922894C
:10321000A1F500700AF011FF2189A180114802F088
:103220001AFAA580258170BDF0B34A410400001050
:10323000D8400100383400108824001088040010A1
:10324000D8D007204572722043532055312000000A
:103250000D0A00008828001088270010882600101A
:10326000150300108825001070B5F84C00252E4677
:1032700025706570304602F08DFE182806D1207842
:10328000761C401CF6B22070042EF3D320784FF049
:10329000FF3630B1002002F07BFDA070FF2802D085
:1032A00006E0304670BDFC21A170002002F0FEFC5B
:1032B00020784FF480218001A0806161C01E102120
:1032C0000005E180000C89022081A18100EB400112
:1032D00021F01F0100EB4002A161D20601D0203194
:1032E000A161C1F58021E08106EB5111202202EBA2
:1032F00041126262E1614FF44022401EA26260818D
:103300002082491ED24A21620020A2F1200100BF82
:1033100040F2431303FB002341F82030401CC0B2AD
:103320000828F5D35FF0000051F82020401CC0B2FF
:1033300015700828F8D301206070002070BD10B50A
:1033400004460AF05BFEC0B2002214E0A15C202912
:1033500015D93A2913D03B2911D02E290FD02A296B
:103360000DD03F290BD02F2909D07C2907D05C290B
:1033700005D0521CD2B28242E8D3012010BD0020F9
:1033800010BD70B50E4600210346154608460C4692
:103390005A5C4AB12E2A07D03254491C401CC0B294
:1033A000C9B20E28F4D900E03454F0B10E281CD86C
:1033B0002E2A0AD02C703046FFF7C1FFA8B128464C
:1033C000FFF7BDFF88B1012070BD491CC9B20020C4
:1033D0005A5C2A5432B1491C401CC0B2C9B20328FD
:1033E000F6D902E008B10328E5D934702C7000202A
:1033F00070BD2DE9F0411546884607460124002698
:103400000AF0FCFDC0B205E0B95D761C2955641CCC
:10341000F6B2E4B28442F7D90E27002602E02E5518
:10342000641CE4B2BC42FAD940460AF0E7FD3844D5
:10343000C1B2002007E000BF18F80020401C2A5548
:10344000641CC0B2E4B28C42F6D9112002E02E55C1
:10345000641CE4B28442FAD9284406460322FF21C0
:1034600002F02EFA01462855F01E0E2202F028FA2C
:1034700008B1FF2800D101202870BDE8F0812DE9B6
:10348000F041734E00240F468046203E56F82450EB
:10349000287850B14046691C0AF090FE28B905F121
:1034A000100138460AF08AFE30B1641CE4B2082CE0
:1034B000ECD34FF0FF30E0E760B2DEE72DE9F041FA
:1034C000624F2025002628463C6A02F061FCFF2856
:1034D00008D0386A05EB401002F05AFCFF280FD0E4
:1034E000701ECAE70020C8E73019450807EB4510F1
:1034F00002F04EFCFF2801D02E4602E02C4600E0F0
:103500002027A01B0128EFD82046B6E72DE9F04779
:10351000122781464FF020080026DFF830A115E081
:10352000444600252046641C02F032FC19F80510C0
:10353000814203D16D1CEDB2BD42F3D3BD4202D135
:103540003046BDE8F08708F12008761CDAF81C0048
:103550008642E5D34FF0FF30F3E770B53B4E0024D1
:10356000756A07E0284602F013FCFF2808D0641CA7
:10357000A4B2ED1CF0898442F4D34FF6FF7070BD05
:10358000204670BD2DE9F041304F00252C467E6A63
:1035900009E0304602F0FCFBFF2801D16D1CADB202
:1035A000641CA4B2F61CF8898442F2D3284664E76E
:1035B0001322202303EB401002F03EBC202202EB3A
:1035C000401002F073BB214A00EB4000526A1044E5
:1035D00002F06CBB13B51D4900EB40000222496AA2
:1035E000084401A9401C02F027FC1CBD174908B57E
:1035F000496A00EB4000014402226846491C02F07F
:1036000079FCBDF8000008BD30B4104A837E946A8E
:10361000928904EB0323048B04FB02330A4600F176
:103620001D0130BC184602F007BC094900202039B2
:1036300051F82020127832B1401CC0B20828F7D3CC
:103640004FF0FF30704740B27047000004C00720C1
:10365000A829001070B50E46FE4986B0497871B1B0
:1036600004AA6946FFF78DFE60B104A96846FFF71A
:1036700006FF002809DB6FF0030006B070BD6FF095
:103680000100FAE76FF00200F7E7FFF7CEFF040052
:1036900002D56FF00400F0E7EF4D012055F824103B
:1036A000087055F824006946401C0AF083FC55F860
:1036B000240004A910300AF07DFC34700020DCE7FF
:1036C0002DE9F041082802D36FF00500D5E6E24964
:1036D00051F820402078012802D06FF00600CCE697
:1036E00004F229152A4604F11001601CFFF781FE3F
:1036F0002846FFF70BFF401C02D06FF00700BCE626
:10370000FFF7DCFE0746401C28D0FFF726FFA0F598
:103710007F410646FF391ED029463846FFF748FF4D
:10372000FE213046FFF74FFFFF2184F83C110020B7
:10373000A4F83D61C4F83F0103222270676126832B
:10374000A076A4F81B002218401C80B25177FF28F5
:10375000F9D9002091E66FF009008EE66FF00800BD
:103760008BE62DE9F05F082803D36FF00500BDE874
:10377000F09FB94951F820402078012802D06FF01D
:103780000600F4E704F229108346024604F1100112
:10379000601CFFF72EFE5846FFF7B8FE8146B0F1D9
:1037A000FF3F1FD0FFF78AFE8046B0F1FF3F1CD0DD
:1037B000202101EB49110D220BF11300133102F00E
:1037C00099FB94F83C01FE2812D0A249D4F83F019D
:1037D000B4F83D718989C0F3052AC5B2B0FBF1F098
:1037E00086B20CE06FF00A00C1E76FF00800BEE798
:1037F0006FF00B00BBE73846FFF7F8FE0746761E72
:10380000B6B2F8D200214846FFF7D8FE59464046E6
:10381000FFF7CEFE03202070C4F81480278384F8BD
:103820001AA0A4F81B505DB18A48826A808902EB15
:103830000A2107FB00112A4604F11D0002F05AFB81
:10384000FF2003E061196D1C4877ADB2FF2DF9D957
:1038500000208CE72DE9F041082802D36FF0050025
:103860000BE67D4951F820402078012802D06FF006
:10387000060002E604F229152A4604F11001601C34
:10388000FFF7B7FD2846FFF741FE0646401C1CD057
:10389000202000EB46110D2205F11300133102F038
:1038A00029FB022020706661B4F83D0120830026C8
:1038B000A676A4F81B60D4F83F514FF48077C4F883
:1038C0001D51BD4204D93D4603E06FF00A00D4E526
:1038D0004DB160498A89896A00FB02112A4604F1C8
:1038E0001D0002F007FBA8B2FF2103E02218401CD4
:1038F000517780B2FF28F9D9C4F82161BD4202D1C5
:10390000C4F8251101E0C4F825510020B5E52DE9E2
:10391000F041082802D36FF00500AEE54E4A52F898
:1039200020402078032802D06FF00C00A5E5D4F8E1
:103930003F014FF00008401CC4F83F01B4F81B00E1
:103940002218401C517786B24FF480718E4222D1EA
:1039500000262046FFF758FE0020FF212218401CB9
:1039600080B25177FF28F9D9A07E401CC7B2402F02
:1039700010D10027FFF7F1FD0546A0F57F40FF3885
:103980000DD0208B2946FFF725FEFE212846FFF7A4
:103990001AFE2583A776A4F81B6040466DE56FF0FC
:1039A0000908F7E72DE9F047082802D36FF0050072
:1039B000C7E5294A52F820402078022802D06FF04B
:1039C0000D00BEE5D4F81D51BDB16D1EC4F81D51EA
:1039D000B4F81B0004F11D084FF4807918F800209A
:1039E000401C87B20A704F4542D1A17E0027491C76
:1039F000208BCEB2402E03D006E06FF00E00A0E583
:103A00000026FFF7F3FD2083A6764D4501D94D46EC
:103A100002E02D042D0C0CD00E498A6A898902EB34
:103A2000062200FB01212A46404602F063FA28469E
:103A300005E02846FF2208F80020401C80B2FF283D
:103A4000F8D9D4F821014D4500F58070C4F8210162
:103A500004E0000004C0072088290010D4F82501E4
:103A600002D100F5807001E06D1C2844C4F82501E6
:103A7000A4F81B70002064E52DE9F0419046082869
:103A800002D36FF00800F8E4F74A52F8204020789B
:103A9000032802D04FF0FF30EFE4B4F81B6004F1CC
:103AA0001D02C6F5807080B2804503D21FFA88F5EA
:103AB0004FF0000702D105464FF0010706D9054631
:103AC000A8EB05004FF0010303EB102705B302EB51
:103AD00006002A460AF0B1FAE7B14FF4807529468C
:103AE0002046FFF791FDAE422CD100262946204604
:103AF000FFF78AFD0020FF212218401C80B2517779
:103B0000FF28F9D9A07E401CC7B2402F08D018E08A
:103B10000020B2E434F81B0F284420804046ACE477
:103B20000027FFF71AFD0546A0F57F40FF3808D0B3
:103B3000208B2946FFF74EFDFE212846FFF743FD67
:103B40002583A776A4F81B60E2E72DE9F05F8A469B
:103B5000082802D36FF0080009E6C34951F8204055
:103B60004FF0FF3021780229F6D1D4F81D0100284A
:103B7000F2D07AB1824200D90246B4F81B0004F1B7
:103B80001D01C0F580739EB2964205D396B2002700
:103B90003A4604E00020EAE5921B170AD2B29146A9
:103BA0000144324650460AF048FAB4F81880A57E1F
:103BB000F7B15644DFF8B4A24FF4807B16E06D1CD9
:103BC000EDB2402D04D100254046FFF70FFD8046A1
:103BD000DAF82810BAF80C0001EB052208FB0021E6
:103BE0005A46304602F086F906F580767F1EE6D208
:103BF000B9F1000F02D0B4F81880A57EA4F818809F
:103C0000A576D4F8210100F58070C4F82101D4F81C
:103C1000250100F58070C4F82501BBE7082802D310
:103C20006FF0080010E500200EE52DE9F74F8B46F8
:103C3000082803D36FF00800BDE8FE8F8A4951F8C9
:103C400020502878022802D04FF0FF30F4E7D5F852
:103C50001D6166B1B5F81B7005F11D08C7F58070D0
:103C600084B2B44200D9B4B24FF000092FE0002072
:103C70008BF80000801EDFE718F807007F1C761E17
:103C8000BFB20A2809D00D280AD070B1029A914516
:103C900010D20BF8090009F10109641EA4B216E064
:103CA00000220BF8092010460BE000200BF8090059
:103CB000C01E06E000200BF809007F1E001FBFB2E7
:103CC000761C34B1C5F81D61A5F81B70B4E7002C53
:103CD000D2D146B1A97E288B491C01F0FF0ABAF166
:103CE000400F08D00CE000200BF80900C5F81D01BA
:103CF000A5F81B70A0E74FF0000AFFF777FC2883B8
:103D0000002785F81AA0FF2E01D8B4B201E04FF4C5
:103D1000807456498B6A898903EB0A2200FB0121D2
:103D20002246404602F0E6F82046FF2104E000BFAC
:103D300008F80010401C80B2FF28F9D9D5F82101FD
:103D400000F58070C5F82101D5F825012044C5F89B
:103D50002501BCE7082802D36FF0080074E40020B6
:103D600072E4082802D36FF008006DE43E4951F870
:103D700020000178022902D04FF0FF3064E4D0F82F
:103D80001D0161E42DE9F0470D46082802D36FF0CC
:103D900005000DE6344951F820402078022802D071
:103DA0006FF00D0004E6D4F83F01A84202D26FF094
:103DB0000F00FDE52D49EFB28889B5FBF0F200FB5D
:103DC0001252C2F30728D4F82121AA420DD8D4F800
:103DD0002521AA4209D3E07EA4F81B70D4F81D1156
:103DE000381A081AC4F81D013BE0B5FBF0F01FFAC1
:103DF00080F98A46B4F83D01002603E0FFF7F6FBA0
:103E0000761CB6B24E45F9D3208384F81A80A4F804
:103E10001B70D4F83F11491BCE19C4F81D11FF2E99
:103E200001D94FF48076DAF82830BAF80C1003EB99
:103E3000082200FB0121324604F11D0002F05AF86D
:103E4000B0B2FF2103E02218401C517780B2FF2856
:103E5000F9D925F0FF00C4F82101761E3044C4F8DA
:103E600025010020A4E500008829001004C00720D7
:103E70002DE9F05F082802D36FF0050077E4FE4AD1
:103E800052F820402078022802D06FF00D006EE436
:103E9000D4F83F01D4F81D21821A551800D5002509
:103EA000854200D90546F54A918995FBF1F001FB61
:103EB0001050C31700EB1360C0F30728E81705EB99
:103EC000106020F0FF0AA5EB0A00C7B2D4F8210168
:103ED000A8420DD8D4F82501A84209D3E07EA4F861
:103EE0001B70D4F81D11381A081AC4F81D013BE0E4
:103EF00095FBF1F01FFA80F99346B4F83D010026D6
:103F000004E000BFFFF772FB761CB6B24E45F9D352
:103F1000208384F81A80A4F81B70D4F83F11491B41
:103F2000CD19C4F81D11FF2D01D94FF48075DBF8B0
:103F30002830BBF80C1003EB082200FB01212A46B5
:103F400004F11D0001F0D6FFA8B2FF2103E0221802
:103F5000401C517780B2FF28F9D96D1EC4F821A109
:103F60000AEB0500C4F8250100200AE42DE9F04120
:103F7000054690F90000082802D36FF005006FE4B1
:103F8000BD4951F82040207850B10026771E012805
:103F900009D0022807D0032809D06FF011005FE490
:103FA0006FF010005CE426702F70002058E4B4F825
:103FB0001B1011B12046FFF727FB6069332101EB8D
:103FC000401004F59E71072201F036FFEBE730B593
:103FD000AA498BB0497871B10AAA6946FFF7D1F9AD
:103FE00060B10AA96846FFF74AFA002809DB6FF0BA
:103FF00003000BB030BD6FF00100FAE76FF0020074
:10400000F7E704AA0AA96846FFF7F3F904A8FFF73F
:104010007DFA411C0BD0202101EB401404F1140166
:10402000022209A801F066FF4FF6FF750AE06FF063
:104030000A00DEE7FFF7C7FABDF82400FFF7D6FA5B
:10404000ADF82400BDF824004FF00001A842F1D1E2
:10405000204601F02BFE0020CBE72DE9F04F89B080
:104060000446DDE912890E460068202101EB40106C
:104070001F461546DFF804B24FF0000A00900BE02F
:10408000009801F085FEFF2810D050B9009820302C
:1040900000902068401C20602168DBF81C008142F1
:1040A000EED32168DBF81C00814211D386F800A012
:1040B00085F800A0FF2139704FF0FF30C8F800A04C
:1040C00089F8000020606FF0120009B0BDE8F08FA1
:1040D0001A2201A8009901F00DFF0020012101AA78
:1040E000535C33542BB1401C491CC0B2C9B20E28DA
:1040F000F6D30E2801D186F80EA000200F21535CC4
:104100002B542BB1401C491CC0B2C9B20328F6D3B2
:10411000032801D185F803A029463046FFF7AFF9FF
:1041200089F80000002808DB534951F8200090F876
:104130003C113970D0F83F1104E09DF81700387039
:10414000DDF81A100020C8F80010BEE7082802D3D6
:104150006FF0050066E5484951F820000178022912
:1041600002D06FF00D005DE5D0F81D0110B16FF0C9
:10417000130057E56FF0140054E5082802D36FF0E0
:1041800005004FE53C4A52F820000278022A02D08E
:104190006FF00D0046E5D0F83F21D0F81D01101A50
:1041A000086000203EE5344951F82000007839E5E8
:1041B0002DE9F041074630480D46394650F8274072
:1041C0002FA000F05FFB394631A000F05BFB00F050
:1041D0009AFB217836A000F055FB00F094FB207884
:1041E00030B1012806D0022844D0032807D136E197
:1041F00033A000E038A000F045FB00F084FB611C18
:104200003BA000F03FFB00F07EFB04F110013CA05E
:1042100000F038FB00F077FB61693DA000F032FB55
:1042200000F071FB218B3FA000F02CFBA17E43A08E
:1042300000F028FB00F067FBB4F81B1044A000F06E
:1042400021FBD4F81D1147A000F01CFB00F05BFB24
:10425000D4F8211148A000F015FB00F054FBD4F86D
:1042600025114CA000F00EFB00F04DFB50A000F01B
:1042700009FBA7E0F1E000008829001004C0072036
:10428000202D204643532025643A0D0A00000000EB
:104290002020202D2D2D2D2D2D2D2D2D2D2D2D2D75
:1042A0002D2D2D2D2D2D2D2D2D2D2D2D0D0A0000DB
:1042B00020202053746174653A20256400000000BA
:1042C00020284643535F53544154455F434C4F535A
:1042D0004544290D0A00000020284643535F5354EB
:1042E0004154455F4F50454E4544290D0A0000009A
:1042F0002020204E616D653A20222573220D0A0090
:10430000202020547970653A20222573220D0A005E
:10431000202020464E545F6E756D3A2025640D0AAC
:104320000000000020202043757272436C75737486
:1043300065723A2025640D0A000000002020204309
:10434000757272506167653A2025640D0A0000009D
:10435000202020506167654275665074723A2025AE
:10436000640D0A0020202052656D61696E53697AE0
:10437000653A2025640D0A002020204D696E4669AB
:104380006C65506F736974696F6E3A2025640D0A0D
:10439000000000002020204D617846696C65506F58
:1043A000736974696F6E3A2025640D0A000000007D
:1043B000202020504147455F4255464645523A0D20
:1043C0000A000000002104F11D00A84700F09BFA3C
:1043D00072A000F057FA74A000F054FA04F2291603
:1043E000002576A0715D00F04DFA6D1CEDB2132D25
:1043F000F7D300F088FA73A000F044FA0025715D4D
:10440000202900D22E2170A000F03CFA6D1CEDB2E4
:10441000132DF4D3AFF26C1000F034FA00F073FAFD
:1044200094F83C1169A000F02DFA00F06CFAB4F891
:104430003D116DA00A4600F025FA00F064FAD4F8A8
:104440003F1172A000F01EFA3946AFF2BC1000F026
:1044500019FABDE8F04100F056BA71A0CBE677A09A
:10446000C9E610B508217CA000F00CFA00F04BFA68
:104470007E4C7FA0217800F005FA00F044FA40213C
:1044800080A000F0FFF900F03EFA4FF4806183A0B5
:1044900000F0F8F900F037FA4FF4807185A000F0D1
:1044A000F1F900F030FA402187A000F0EBF900F0BC
:1044B0002AFA0E218BA000F0E5F900F024FA03217E
:1044C0008EA000F0DFF900F01EFA202191A000F08C
:1044D000D9F900F018FA032194A000F0D3F941A013
:1044E00000F0D0F900F00FFAA18896A000F0CAF908
:1044F00000F009FA99A0616900F0C4F900F003FA2C
:10450000E1889BA000F0BEF900F0FDF921899FA091
:1045100000F0B8F900F0F7F96189A2A000F0B2F953
:1045200000F0F1F9A189A4A000F0ACF900F0EBF9DA
:10453000A6A0A16900F0A6F900F0E5F9E189A7A01D
:1045400000F0A0F900F0DFF9218AAAA000F09AF9A2
:1045500000F0D9F9ACA0E16900F094F900F0D3F9CA
:10456000AFA0216A00F08EF91EA000F08BF900F0D8
:10457000CAF92021AFA000F085F900F0C4F9B3A07A
:10458000616A00F07FF900F0BEF9B6A0A16A00F000
:1045900079F9BDE8104000F0B6B9000020202046AF
:1045A0004E543A0D0A000000202020464E542E465C
:1045B000756C6C4E616D653A20000000202530322C
:1045C00058000000207C20002563000020202046A9
:1045D0004E542E4174747269627574653A20307855
:1045E000253032580D0A0000202020464E542E4619
:1045F00069727374436C75737465723A2025642014
:1046000028307825303458290D0A00002020204613
:104610004E542E53697A653A2025640D0A00000035
:1046200020284643535F53544154455F4F50454EF5
:1046300045445F52454144290D0A00002028464365
:10464000535F53544154455F4F50454E45445F5767
:1046500052495445290D0A004D41585F46494C4581
:1046600053203D2025640D0A0000000004C00720EF
:1046700042414E4B535F4E554D203D2025640D0A5F
:1046800000000000534543544F52535F5045525F62
:1046900042414E4B203D2025640D0A0050414745C4
:1046A000535F5045525F534543544F52203D2025A0
:1046B000640D0A00504147455F53495A45203D204B
:1046C00025640D0A0000000050414745535F5045E6
:1046D000525F434C5553544552203D2025640D0AEA
:1046E0000000000046494C455F4E414D455F4C453A
:1046F0004E475448203D2025640D0A0046494C454C
:104700005F545950455F4C454E475448203D202545
:10471000640D0A00464E545F5245434F52445F5366
:10472000495A45203D2025640D0A00004341545F4D
:104730005245434F52445F53495A45203D2025641A
:104740000D0A0000534543544F52535F4E554D429E
:104750004552203D2025640D0A0000005345435476
:104760004F525F53495A45203D2025640D0A0000F1
:10477000434C5553544552535F5045525F53454344
:10478000544F52203D2025640D0A0000434C5553E0
:10479000544552535F4E554D424552203D202564AD
:1047A0000D0A0000436C75737465724D4158203DCD
:1047B0002025640D0A000000434C55535445525FB8
:1047C00053495A45203D2025640D0A004341545F5A
:1047D00053697A65203D2025640D0A0043415452F7
:1047E00065636F7264734E756D626572203D20253E
:1047F000640D0A004341545265636F72644D415821
:10480000203D2025640D0A00464E545265636F72A8
:1048100064734E756D626572203D2025640D0A003B
:10482000464E545265636F72644D4158203D2025B9
:10483000640D0A00464E545F424153455F41444473
:1048400052455353203D2025640D0A004341545FD7
:10485000424153455F41444452455353203D202536
:10486000640D0A00434C5553544552535F42415323
:10487000455F41444452455353203D2025640D0A71
:10488000000000000FB470B578212E4809F04CFCF0
:104890002D4D05AA2C1F2A602A48049909F0F0F929
:1048A00000202860274809F0A9FB05462088291820
:1048B000C82909DA23492A46C8390844C83109F009
:1048C000BCFB20882844208070BC5DF814FB2DE9D7
:1048D000F0419AB000260F4635460446E8460AE005
:1048E00014F8012B08EB060018A109F0DBF930449D
:1048F0006D1C86B2ADB2BD42F2D36846FFF7C2FF6F
:104900001AB0BDE8F08110B50F4C241F2088002894
:1049100017D09F210020FEF7A4FB66210020FEF7A0
:10492000A0FB2088C82801D3C7202080054982B277
:10493000C8390020FEF7DFFB0020FEF73EFC002018
:10494000208010BD78D2072020000010253032587A
:10495000200000002DE9F0411D4616000F4680465C
:1049600003D000210C4629600CE00020BDE8F08156
:1049700039194046FFF716F80028F7DB2968491C6B
:10498000641C2960B442F3D3F0E72DE9F843002515
:1049900017460E4680462C46FFF7D8FB153003D14C
:1049A0006FF01400BDE8F88369464046FEF7FAFF51
:1049B0000028F7DB15B1012D08D10CE09DF80000AF
:1049C00030559DF800000D2800D10125641CBC4223
:1049D000EAD30020E6E79DF800000A2805D04FF052
:1049E000FF314046FFF744FAF3E73055F1E7F8B5F9
:1049F0000C4606466946FFF7C0FB002813D1009815
:104A000090B14FF0FF3529463046FFF731FA0028C4
:104A100009D121463046FEF7C5FF002803D12946BB
:104A20003046FFF725FAF8BD002020706FF0150022
:104A3000F8BDFEB50E4615460746002401A9FFF74E
:104A40009CFB002803D1019840B96FF01500FEBD12
:104A50009DF800000D2801D1641CE4B26946384677
:104A6000FFF7C5FF08B9022CF2D301A93846FFF7BA
:104A700084FB0028EBD1019858B169463846FEF70F
:104A800091FF69463846FEF78DFF69463846FEF7C6
:104A900089FF02A93846FFF770FB0028D7D12A46C4
:104AA00031463846FFF771FF0028D0D138460299C9
:104AB000FFF768F9FEBD2DE9F0410F464FF0000108
:104AC0001D4616008046196001D000240BE000202E
:104AD0004CE7395D4046FEF71AFF0028F8DB2968ED
:104AE000491C641C2960B442F3D33FE70A0005D097
:104AF0000021416002701046FFF744B96FF0630077
:104B0000704770B50E4604464168154690F900009E
:104B1000FFF738F900280ED194F900002A463146F3
:104B2000FFF733FF002806D194F90000211DBDE8EE
:104B30007040FFF722BB70BD70B50E460446416859
:104B4000154690F90000FFF71DF900280ED194F9E1
:104B500000002A463146FFF76CFF002806D194F981
:104B60000000211DBDE87040FFF707BB70BD70B5A8
:104B700004460D4690F90000FFF704F9002800D123
:104B8000656070BD40680860002070470C4A0020D6
:104B900002F1780152F82030012B04D952F820306C
:104BA0005B1E42F8203051F8203023B151F82030FC
:104BB0005B1C41F82030401C1E28EBD370470000DE
:104BC000C033001010B5036189B1012912D0022948
:104BD00012D003293AD1FB4B03F10804C4606AB137
:104BE000012A0DD0022A20D0032A0BD11FE04FF05A
:104BF0004023F1E7F44BEFE7F44BEDE7183300E027
:104C00001C33836001EB810102EB4102F049142A5D
:104C10002BD00EDC0E2A19D2DFE802F017191B1D6B
:104C20001818181818181F2123252033E9E72433F2
:104C3000E7E7153A0D2A09D2DFE802F0191B1D0833
:104C400008080808081F21232500086010BD4860D7
:104C500010BD886010BDC86010BD086110BD4861FE
:104C600010BD886110BDC86110BD086210BD4862EA
:104C700010BD886210BDC86210BD086310BD4863D6
:104C800010BD886310BDC86310BD2DE9F04186B02A
:104C9000B0F1000844D0012846D0022847D0B8F12E
:104CA000030F3AD1C74C0425002601278DF80C606C
:104CB00003AA314620460497FDF7B2FF8DF8017034
:104CC0008DF80360C3488DF8026002908DF804608F
:104CD0008DF8006069462046FEF762F88DF8007096
:104CE00069462046FEF75CF802208DF80000694610
:104CF0002046FEF755F803208DF80000694620464F
:104D0000FEF74EF8284600F058FA4146284600F0D3
:104D10005FFA01212046FEF730F806B0BDE8F081C9
:104D20004FF040240125BFE7A74C0225BCE7A74C64
:104D30000325B9E72DE9F04186B0B0F100082ED087
:104D4000012830D0022831D0B8F1030FE5D19D4CB5
:104D50000425002601278DF80C6003AA3146204661
:104D60000497FDF75DFF8DF801708DF80370994889
:104D70008DF8026002908DF804608DF8006069463D
:104D80002046FEF70DF8284600F017FA414628465F
:104D900000F01EFA01212046FDF7EFFFBDE74FF0BE
:104DA00040240125D5E7884C0225D2E7874C03250E
:104DB000CFE770B54FF040242668854DF00721D02D
:104DC000012020602868E8B10178D9B100698047E6
:104DD000A069A1688842A068A16901D2401A01E0D7
:104DE000C943084429684B6800F12302934203D960
:104DF000A0694968084404E0486148688861A0687F
:104E00000F30A061B00721D5022020606868E8B1AA
:104E10000178D9B100698047E069A1688842A0683B
:104E2000E16901D2401A01E0C943084469684B684E
:104E300000F12302934203D9E0694968084404E081
:104E4000486148688861A0680F30E061700721D52B
:104E500004202060A868E8B10178D9B100698047D2
:104E6000206AA1688842A068216A01D2401A01E044
:104E7000C9430844A9684B6800F12302934203D94F
:104E8000206A4968084404E0486148688861A0686D
:104E90000F302062300723D508202060E868002802
:104EA0001ED0017800291BD000698047606AA16884
:104EB0008842A068616A01D2401A01E0C9430844EF
:104EC000E9684B6800F12302934203D9606A49689C
:104ED000084404E0486148688861A0680F30606257
:104EE00070BD394901200860FFF750BE70B5374CDE
:104EF00000212046FDF772FE354D012823D1286A96
:104F0000E8B10178D9B100698047A069A1688842F9
:104F1000A068A16901D2411A01E0C9430144286A8D
:104F2000436801F12302934203D9A1694068084410
:104F300004E0416141688161A0680F30A0610021F7
:104F40002046FDF75CFE01212046FDF747FE0128C3
:104F500023D1686AE8B10178D9B100698047E06976
:104F6000A1688842A068E16901D2401A01E0C94302
:104F70000844696A4B6800F12302934203D9E0694F
:104F80004968084404E0486148688861A0680F30B7
:104F9000E06101212046FDF732FE02212046FDF7A7
:104FA0001DFE01282ED1A86A40B3017831B30069F3
:104FB0008047206AA1688842A068216A0CD2411A01
:104FC0000CE0000000400940008000400000094063
:104FD00024000010A0252600C9430144AA6A536892
:104FE00001F12300834203D9206A5168084404E098
:104FF000516150689061A0680F3020620221204604
:10500000FDF7FDFD03212046FDF7E8FD012825D130
:10501000E86AE8B10178D9B100698047606AA1689F
:105020008842A068616A01D2411A01E0C943014483
:10503000E86A436801F12302934203D9616A406838
:10504000084404E0416141688161A0680F306062FA
:105050002046BDE870400321FDF7D1BD70BD70B59D
:10506000634C00212046FDF7B9FD624D012823D194
:10507000286BE8B10178D9B100698047A069A168BF
:105080008842A068A16901D2411A01E0C9430144E4
:10509000286B436801F12302934203D9A169406858
:1050A000084404E0416141688161A0680F30A0615B
:1050B00000212046FDF7A3FD01212046FDF78EFDCE
:1050C000012823D1686BE8B10178D9B10069804724
:1050D000E069A1688842A068E16901D2401A01E054
:1050E000C9430844696B4B6800F12302934203D91A
:1050F000E0694968084404E0486148688861A0683C
:105100000F30E06101212046FDF779FD02212046A4
:10511000FDF764FD012823D1A86BE8B10178D9B16E
:1051200000698047206AA1688842A068216A01D28C
:10513000411A01E0C9430144AA6B536801F12300FD
:10514000834203D9206A5168084404E051615068E1
:105150009061A0680F30206202212046FDF74FFDCC
:1051600003212046FDF73AFD012825D1E86BE8B17F
:105170000178D9B100698047606AA1688842A06857
:10518000616A01D2411A01E0C9430144E86B4368F6
:1051900001F12302934203D9616A4068084404E0A4
:1051A000416141688161A0680F3060622046BDE8BE
:1051B00070400321FDF723BD70BD00F01F020121E7
:1051C00091404009800000F1E020C0F800117047D4
:1051D000C906090E002806DA00F00F0000F1E020F1
:1051E00080F8141D704700F1E02080F8001470472B
:1051F000004009402400001070B5FE4C606840F289
:10520000053630406060207D4006FCD5FA4D2868A8
:105210006968C0F30800C1F30801884210D06968CA
:1052200005F11000085CFDF74EFB48B16868401CB2
:10523000C0F308006860B5F81204401CA5F8120419
:105240002868C0F308016868C0F30802EB4891427F
:1052500005D16168314061600021017070BD01219C
:105260000170606840F00200606070BDF8B5E24C0B
:10527000E04E04F504750023012269463046FDF72F
:1052800034FB002817D0E068C0F30801A068401C78
:10529000C0F308008142EED09DF80000A168485597
:1052A000A068401CC0F30800A06094F81404401CDF
:1052B00084F81404DFE7F8BD704710B5CD4C2046E4
:1052C000FDF773FB00F00E00062808D004280AD072
:1052D0000C2808D0022805D1BDE810408CE72046F4
:1052E000FDF75CFB10BDBDE81040BFE7C348406858
:1052F0003221B0FBF1F0C249401C0860704770B524
:10530000C04D686840F28D3630406860287D4006A8
:10531000FCD5BD4C94F81004012802D1BB490C20E7
:10532000886520686168C0F30800C1F308018842FD
:1053300010D06168B4481030085CFDF7CDFA48B170
:105340006068401CC0F308006060B4F81204401CA0
:10535000A4F812042068C0F308016068C0F30802D2
:10536000A64891420BD169683140696000214170C3
:1053700094F81004012808D1BDE87040B6E7012177
:105380004170686840F00200686070BDF8B59E4CDE
:105390009C4E04F504750023012269463046FDF752
:1053A000A4FA002817D0E068C0F30801A068401CE8
:1053B000C0F308008142EED09DF80000A168485576
:1053C000A068401CC0F30800A06094F81404401CBE
:1053D00084F81404DFE7F8BD704710B5894C204607
:1053E000FDF7E3FA00F00E00062808D004280AD0E2
:1053F0000C2808D0022805D1BDE810407FE72046E0
:10540000FDF7CCFA10BDBDE81040BFE77F48016C46
:1054100041F004010164016C41F008010164416D37
:1054200041F004014165416D21F00801416570477B
:105430007749B1FBF0F07149486070477348016CDF
:1054400041F004010164016C41F0080101640C2188
:10545000C16570472DE9F04F0700DFF8A88185B0DE
:105460009A4691468B464FF001054FF002004FF0EF
:10547000000405D0012F19D0002005B0BDE8F08F41
:105480008DF802508DF803408DF801008DF804402E
:105490008DF800406846FDF75DF803208DF80100A7
:1054A0006846FDF757F8534E534D13E08DF8020050
:1054B0008DF803408DF800008DF804408DF8014010
:1054C0006846FDF747F88DF801506846FDF742F849
:1054D0004D4D46460E988DF80D008DF80CA00F9896
:1054E0008DF80E00CDF8089002A93046FDF710F9AE
:1054F00004A8FDF78FFA04A93046FDF76BFA0121E5
:105500003046FDF794F9012200213046FDF71CFAE0
:10551000012202213046FDF717FA384817B1012F52
:1055200003D101E0047000E04470AC60EC602C60DA
:105530006C604FF40070A5F8120485F8144485F8E7
:1055400010B446450AD195F8100428B1FFF776FF4C
:105550004846FFF76DFF01E0FFF758FF17B1012F35
:105560000DD105E0052000F082F90321052004E0BB
:10557000062000F07CF90221062000F083F90120CA
:105580007BE708B1204800E01B48B0F812047047E0
:105590002DE9F0471646B0F100090D464FF000071F
:1055A00005D0B9F1010F06D00020BDE8F087114801
:1055B000114C804602E01348134C80460022012122
:1055C000FDF7C2F904F1100011E000BF15F8011B4E
:1055D000226811542168491CC1F308012160761E1C
:1055E000B4F81214B6B2491EA4F812147F1CCEB13E
:1055F00061680FE000C00040B034001030C00720E8
:10560000C033001000000140C838001000C009205D
:1056100080969800C1F308022168491CC1F3080173
:105620008A42D3D19F485FEA090103D0B9F1010F43
:105630000CD104E0007820B9FFF7DEFD06E04078E9
:1056400030B1012211464046FDF77EF9B8B2ACE711
:10565000FFF755FEFAE72DE9F041934D00246A6803
:1056600040F205331A406A60904A02F1100310E0DC
:1056700010F8016B1768FE541668761CC6F308060E
:105680001660491EB2F8126489B2761EA2F812643E
:10569000641C41B15668C6F308071668761CC6F349
:1056A0000806B742E4D17F48007830B1686840F01E
:1056B00002006860A0B2BDE8F081FFF79DFDF9E748
:1056C0002DE9F0417A4D00246A6840F205331A4012
:1056D0006A60784A02F1100311E000BF10F8016B14
:1056E0001768FE541668761CC6F308061660491E35
:1056F000B2F8126489B2761EA2F81264641C41B139
:105700005668C6F308071668761CC6F30806B74243
:10571000E4D16448407828B1686840F002006860CD
:10572000A0B2C8E7FFF7EBFDFAE708B1614800E077
:105730005E4890F8140470472DE9F04116460D4676
:10574000002718B1012805D00020B4E75648574C6F
:10575000804602E05648574C804600221146FDF72D
:10576000F3F804F5047010E0E168095C05F8011B2A
:10577000E168491CC1F30801E160761E94F8141435
:10578000B6B2491E84F814147F1C3EB1A168E268C9
:10579000C1F30801C2F308029142E5D101220021C0
:1057A0004046FDF7D1F8B8B285E7F0B53E4C00258C
:1057B000626840F206331A4062603C4A02F50473A4
:1057C00010E0D668F65C00F8016BD668761CC6F36C
:1057D0000806D660491E92F8146489B2761E82F8D3
:1057E00014646D1C39B19668D768C6F30806C7F310
:1057F0000807BE42E5D1606840F001006060A8B2D1
:10580000F0BDF0B52A4C0025626840F206331A401C
:105810006260284A02F5047310E0D668F65C00F86E
:10582000016BD668761CC6F30806D660491E92F84E
:10583000146489B2761E82F814646D1C39B19668BE
:10584000D768C6F30806C7F30807BE42E5D160680B
:1058500040F001006060A8B2F0BD1748016801295E
:1058600004D1164A0C21D16501210160704700F076
:105870001F02012191404009800000F1E020C0F8A2
:1058800000117047C906090E002806DA00F00F0063
:1058900000F1E02080F8141D704700F1E02080F84E
:1058A0000014704730C0072000C00040B034001022
:1058B00000000140C8380010C033001000C00920AB
:1058C00010B5124B04E000BF10F801494C40195DBF
:1058D000521E92B2F8D2084610BD01460EF0C8B969
:1058E00070B504460EF048F905460EF061F9214600
:1058F0000EF0BBFAB0F17C5F01DD681C70BD28467C
:1059000070BD002800DA40427047000064000010BB
:10591000FD484FF40141C0F8C410D0F8A81121F49B
:105920004031C0F8A811F9490020C860F848026861
:1059300042F040420260426842F03C024260026C27
:1059400042F000420264426C42F028024264426823
:105950004260426CEF4B1A434264EF48026842F0E7
:10596000F8520260826942F0F85282618020086039
:105970007047E54A52F8C40F40F4001042F86C0B2F
:10598000E549086840F480300860486940F4803098
:105990004861DF48436823F003034360036823F052
:1059A00040430360036843F000430360436823F00F
:1059B0003C034360436843F028034360D36F23F400
:1059C0004063D367D36F43F48063D367D34A0A231A
:1059D0001361072313600223536042684260426CE4
:1059E000CC4B1A434264086840F0F850086088695C
:1059F00040F0F85088617047C849C968084070474E
:105A0000C64A00B590601020FFF7F6FF0028FAD1D3
:105A10009068C0B200BDC049052818D2DFE800F088
:105A200003070B0F1300C86940F080700EE0C869CF
:105A300040F000700AE0C86940F0806006E0C86984
:105A400040F0006002E0C86940F08050C8617047D3
:105A5000B149052818D2DFE800F003070B0F130047
:105A6000886940F080700EE0886940F000700AE0BC
:105A7000886940F0806006E0886940F0006002E0DC
:105A8000886940F0805088617047B9E7FF20B7E728
:105A900010B50446FFF7BFFF9F20FFF7B1FFFFF7E8
:105AA000F5FFFFF7F3FFFFF7F1FF03462046FFF78F
:105AB000CFFF172B03D0182B04D0002010BD4FF4BC
:105AC000004010BD4FF4803010BD10B5FFF751FFFE
:105AD0000020FFF7DDFF924C20600120FFF7D8FF88
:105AE00060600220FFF7D4FFA0600320FFF7D0FF23
:105AF000E06062688B4913024B6023681A44A36814
:105B00001A4410440002886010BD864880687047BF
:105B100010B50446FFF77FFF0520FFF771FFFFF781
:105B2000B5FF03462046FFF793FF184610BD10B59A
:105B300004460123FFF76FFF0520FFF761FF00BF59
:105B4000FFF7A4FFC007FBD12046FFF781FF1846EF
:105B500010BD10B504460023FFF75DFF0520FFF7D9
:105B60004FFF00BFFFF792FFC007FBD12046FFF7B2
:105B70006FFF184610BD6A490968B1F5004F02D0A1
:105B800020F07F407047C0F31600704764490968F1
:105B9000B1F5004F02D0000EC0B27047C00DFBE758
:105BA00010B50246FFF7F2FF04461046FFF7E3FF89
:105BB00003462046FFF72FFF0620FFF721FF204670
:105BC000FFF746FF2046FFF726FFD820FFF718FF14
:105BD000C3F30740FFF714FFC3F30720FFF710FFDD
:105BE000D8B2FFF70DFF2046FFF732FF2046FFF740
:105BF00012FF0520FFF704FFFFF748FFC007FBD1A6
:105C00002046FFF725FF48A0FEF73CFEFEF77BFE8F
:105C100044480168C160C1684A1EC260FBD20020CE
:105C200010BD7FB546493E4D00240FC98DE80F00D9
:105C3000214644A0FEF726FEFEF765FE55F8240037
:105C400088B12046FFF7E7FE0620FFF7D9FE204681
:105C5000FFF7FEFE2046FFF7DEFEC720FFF7D0FE6F
:105C60002046FFF7F5FE641CE4B2042CE0D30024C8
:105C70006E4621463AA0FEF705FEFEF744FE55F8B3
:105C8000240020B12046FFF764FF46F82400214697
:105C90003AA0FEF7F7FDFEF736FE641CE4B2042CD2
:105CA000E7D3009804B070BDC0B2704730B50C4661
:105CB0000246FFF76BFF05461046FFF75CFF034601
:105CC0002846FFF7A8FE0620FFF79AFE2846FFF7B2
:105CD000BFFE2846FFF79FFE0220FFF791FEC3F3A9
:105CE0000740FFF78DFEC3F30720FFF789FED8B208
:105CF000FFF786FE2046FFF783FE2846FFF7A8FE43
:105D00002846BDE8304012E700C00F4000000240C6
:105D100000C002400000AA0200C009200080084024
:105D2000F0D2072038C00720636F6D706C65746512
:105D300020536563746F7245726173650D0A0000CC
:105D4000D842010042756C6B2065726173696E67A1
:105D50002062616E6B2025642E2E2E0D0A0000003D
:105D6000576169742065726173696E672062616E44
:105D70006B2025642E2E2E0D0A000000436F6D70DF
:105D80006C6574652062616E6B2025642E0D0A00BF
:105D900010B50246FFF7FAFE04461046FFF7EBFE89
:105DA00003462046FFF737FE0320FFF729FEC3F323
:105DB0000740FFF725FEC3F30720FFF721FED8B207
:105DC000FFF71EFEFFF762FE03462046FFF740FE88
:105DD000184610BD70B515460B460246FFF7D6FEB5
:105DE00006461046FFF7C7FE04463046FFF713FE8F
:105DF0000620FFF705FE3046FFF72AFE3046FFF784
:105E00000AFE0220FFF7FCFDC4F30740FFF7F8FD90
:105E1000C4F30720FFF7F4FDE0B201E013F8010B33
:105E2000FFF7EEFD6D1EADB2F8D23046FFF710FE63
:105E30003046BDE870407AE6F0B5054601200E46D2
:105E400015F0FF0F11D06942CCB2944200D9D4B200
:105E5000111B0F0A01F0FF0CB4B12246314628464F
:105E6000FFF7B8FF264425440CE00024EDE700BF0F
:105E70004FF4807231462846FFF7ACFF05F5807578
:105E800006F5807600280CD07F1EF1D2002808D0BD
:105E9000BCF1000F05D031462846BDE8F04062460F
:105EA00098E7F0BD70B5154603460A460846FFF769
:105EB0006DFE06461046FFF75EFE04463046FFF7CD
:105EC000AAFD0320FFF79CFDC4F30740FFF798FDF0
:105ED000C4F30720FFF794FDE0B2FFF791FD03E064
:105EE000FFF7D4FD03F8010B6D1EF9D23046BDE873
:105EF0007040ADE52DE9F04106460D460846FFF736
:105F00003AFE2E4903464868C41A844200D1002450
:105F1000944200D91446121B8846B2FBF0F1CFB26E
:105F2000B2FBF0F100FB112C34B122462946304679
:105F3000FFF7B8FF2644254444467F1EFFB208D32E
:105F4000294630466268FFF7ADFF606806440544A5
:105F5000F3E7BCF1000F05D029463046BDE8F0411B
:105F600062469FE7BDE8F08110B514494FF47A749A
:105F7000224610311248FFF75FFF2246114940F2D6
:105F8000F230FFF759FF22460D49BDE81040643951
:105F90000D48AFE710B50446FFF73DFD9F20FFF722
:105FA0002FFDFFF773FDFFF771FDFFF76FFD034650
:105FB0002046FFF74DFD184610BD000038C00720F1
:105FC0009CFF7F0018C8072000D30720FA4908600B
:105FD0007047F0B4F84D2C68002C41D0F74A00EB24
:105FE0004003118090706868C15CD170C55CFF216E
:105FF000242D2DD205EB4506F14DF24F55F82660C4
:10600000BE4201D1002110E0EE4F2037BE4201D147
:1060100001210AE0EB4F4037BE4201D1022104E0EA
:10602000E84F6037BE4200D103211171C15C01EB22
:10603000410105EB810149689160C15C184401EBA5
:10604000410105EB8101097A11734078507303E037
:106050001171916011735173A446F0BCD748604729
:10606000F0BC704770B5D44A00EB40035468E15C63
:10607000FF2926D001EB4105D14901EB8505AD682B
:10608000012D05D05FF03101FFF7A3FF002070BDA7
:10609000181984789CB10024847050681A18C05C68
:1060A000527800EB4000002A51F82020536901EBA0
:1060B0008000406801D0034300E083435361012026
:1060C00070BD3021E0E770B5BB4A00EB4003546877
:1060D000E15CFF2925D001EB4105B94901EB8505BC
:1060E000AD68012D04D02121FFF773FF002070BDA2
:1060F000181984789CB90124847050681A18C05CFF
:10610000527800EB4000002A51F82020536901EB3F
:106110008000406801D0834300E0034353610120C5
:1061200070BD2021E0E770B5A34A044600EB4405AA
:106130005068405D242827D2A14900EB400001EBC4
:1061400080039E68C6B1012E05D011212046FFF7BD
:1061500040FF002070BD51F8200001685B681943C2
:10616000016051680020294488702046FFF7ABFF8A
:106170002046FFF777FF05E051F8200001685A68D4
:1061800091430160012070BD1021DFE770B58A4D99
:106190008B4E0024696804EB4400085CFF2809D09A
:1061A00000EB400006EB80008068FF2802D0E0B2E0
:1061B000FFF7B9FF641CA4B2242CEBD370BDF0B57B
:1061C0007D497F4A00204E687F4900BF00EB4003B5
:1061D00000EB8007F45C33445D7801EB8703002D0E
:1061E0001D6104EB440552F8255005D005F1180C4B
:1061F0001C35C3F804C004E005F11C0C1835C3F8C5
:1062000004C004EB440441F8275052F8245002EB38
:10621000840414359D60401C646880B2DC602428CE
:10622000D4D3F0BD00EB4001634842680A44937840
:10623000002B0FD10123937042688818515C43787A
:106240005F4801EB410100EB810250F821005268E8
:106250000BB1C26170478261704700EB80015A4800
:1062600000EB810250F82100D26802607047524A68
:1062700000EB4001506808448378002B14D00023C1
:10628000837052688818515C43784D4801EB410196
:10629000002B50F82120536900EB8100406801D0A9
:1062A000034300E083435361704700EB800146489D
:1062B00000EB8100C1684068016070472DE9F04142
:1062C0003D4900EB40024E68B35CFF2B2FD003EB3F
:1062D00043053B4B03EB8504A7684FB1012F23D047
:1062E0005FF04101FFF775FE4FF0FF30BDE8F08130
:1062F0009019002690F801C00127BCF1000F09D0C9
:1063000053F8253064685B699C4309D10AE048680A
:1063100010440AE053F825305B696468234201D0D9
:106320008770F4E78670F2E790198078DEE7402105
:10633000D8E7F0B5204900EB400200254968234B1F
:1063400011441D4A8C780832114601EB400112F8C5
:1063500010604978B44215D053F82160AEB11C4E9C
:1063600064273668B6F900607E43322796FBF7F65D
:1063700053F8217017B153F821707F1EBE4203D22B
:1063800002F8104043F82150F0BD012043F82100ED
:10639000F0BDF0B5044600EB44050748084A4168E3
:1063A000485D00EB400302EB8300866896B1012E46
:1063B0002FD00020F0BD0000E8CF0720B03F001034
:1063C0006401001000C00920E03C001038340010C7
:1063D00088D107202944002691F801C001274B4DA0
:1063E000BCF1000F0ED052F8232040685269904350
:1063F00001D08F7000E08E702046FFF79AFF15F8ED
:106400001400D7E752F82320526940680242F2D0C4
:10641000EFE768188078CDE700EB80013C4800EB9F
:106420008101083107C90068002A00EA010001D093
:1064300008B10020704701207047344B0021083B11
:1064400000EB40025B681A449170304A02F8101069
:1064500070472E4910B5083900EB40024968895C45
:10646000FF2906D001EB41002A4901EB8000007AA8
:1064700010BD5021FFF7ADFDFF2010BD234910B521
:10648000083900EB400249688B5CFF2B02D05018A2
:10649000407810BD7021FFF79CFDFF2010BD70B546
:1064A0001A4A0546083A00EB45035068C45CFF2CC5
:1064B0001ED004EB4406174C04EB8606B668FF2E8C
:1064C00011D0184441705068C05C00EB400004EBF0
:1064D0008000806801280DD12846FFF7A3FE2846DA
:1064E000BDE87040C3E682212846BDE8704070E5F3
:1064F0008021F9E770BD10B500242046FFF713FE98
:10650000641CE4B2242CF8D310BD0000F0CF0720A7
:10651000E03C00106401001040F6EA41F94807F041
:1065200003BE2DE9F041F74CB4F8E40C00EBC001D8
:10653000C1EB801004EB400090F86C00C0B19F21CB
:106540000020FCF78EFD67210020FCF78AFDB4F8DF
:10655000E40C00EBC001C1EB801004EB4001002013
:10656000B1F866203431FCF7C6FD0020FCF725FEAB
:10657000B4F8E40CE44D00EBC001C1EB801004EB77
:106580004001E24E91F83500020657D5E04F11F870
:10659000342F3A7078708878B870DE4800680078D8
:1065A00080B1DDA0FEF76EF9B4F8E40C00EBC00199
:1065B000C1EB801004EB4000418EFEF788F9D8A0B3
:1065C000FEF760F9D7480068007828B1BB787A7880
:1065D0003978D5A0FEF756F9DF480068007890B109
:1065E000DEA0FEF74FF9B4F8E40C00EBC001C1EBFC
:1065F000801004EB4000B0F866103430FEF767F905
:10660000C7A0FEF73FF9306839780078884213D187
:10661000D5480068017800290ED02878814209D237
:10662000D2A0FEF72FF9D5480E210068BDE8F04151
:1066300007F07ABD401C2870BDE8F08180463068C4
:1066400091F834700078B84205D1CD490020287007
:10665000096801200870CB480068007880B1CAA0A2
:10666000FEF710F9B4F8E40C00EBC001C1EB8010A8
:1066700004EB4000418EFEF72AF9A9A0FEF702F9CB
:10668000C3480068007820B142463946C1A0FEF7F1
:10669000F9F8C9480068007890B1C8A0FEF7F2F890
:1066A000B4F8E40C00EBC001C1EB801004EB400037
:1066B000B0F866103430FEF70AF999A0FEF7E2F858
:1066C000B4F8E40C326800EBC001C1EB801004EBBD
:1066D0004000127890F83410914206D1B0F866105C
:1066E000BDE8F041343007F09BB8B6A0FEF7CAF819
:1066F000B4F8E40C00EBC001C1EB801004EB4000E7
:10670000B0F86610BDE8F0413430FEF7E0B870B57F
:106710007C4CB4F8E40C00EBC001C1EB801014F821
:10672000105004EB40004678AE480068007880B115
:10673000ADA0FEF7A7F8B4F8E40C00EBC001C1EB84
:10674000801004EB4000418EFEF7C1F874A0FEF704
:1067500099F8A7480068007820B132462946A5A0DC
:10676000FEF790F8B4F8E40C00EBC001C1EB801028
:1067700004EB400090F8681011B1491E80F86810D1
:10678000624800680078A84216D17748006802780D
:10679000002A11D05C4801788A420BD2784A002145
:1067A00012681170017075480E210068BDE87040D4
:1067B00007F0BABC491C017070BD5248B0F8E41C27
:1067C000491C89B21E22B1FBF2F302FB1311A0F89F
:1067D000E41C70474B48B0F8E41CB0F8E62C501AA3
:1067E000914201D2C0B2704702D900F11E00F9E710
:1067F0004FF0000070472DE9F041874DA86801284F
:1068000036D1404C0026854B94F8E80C652750B1F2
:1068100001282DD1AF60187868B3022084F8E80C05
:10682000FFF77FFE37E0FFF7D5FF10B3B4F8E40CB5
:10683000012700EBC001C1EB801004EB4001B1F86F
:106840006A0000EB800007EB800068621E704A8ED1
:106850003846FCF750FC0120FCF7AFFCC920E8608B
:10686000E8680128FCD184F8E87C40F22130A86077
:10687000E2E6AF60E0E6686A0128F9D1FFF747FF7A
:10688000B4F8E40C00EBC001C1EB801004EB400055
:1068900090F8680008B9FFF790FF84F8E86CCBE641
:1068A0002DE9F04190460E460746FFF793FF1D285D
:1068B00027D2144D3246B5F8E60C00EBC001C1EB0F
:1068C000801005EB40043946204607F0B6FB5448DB
:1068D00066861E210068007884F8680051480068C8
:1068E0000088A4F86A0084F86C80B5F8E60C401CB7
:1068F00080B2B0FBF1F201FB1200A5F8E60C00201B
:106900009AE691E0D0DA07209DD0072084D10720B5
:1069100018030010C4D00720436D64457272200034
:106920000D0A0000C8D00720416E737765722045BC
:1069300072726F722E2041646472202532582C20AE
:10694000436D6420202532582C20436F6465202538
:1069500032582E0D0A000000CCD00720416E73770C
:1069600045727220000000003CD10720CAD02045AB
:1069700072726F722E200D0A0000000094D1072061
:1069800040D10720B8D00720436D644F6B20000032
:10699000BCD00720416E73776572204F6B2E20416B
:1069A000646472202532582C20436D6420202532E7
:1069B000582E0D0A00000000C0D00720416E7377EA
:1069C0004F6B2000556E6B6E6F776E206465766935
:1069D000636520616E7377657220282558292E0D16
:1069E0000A000000D0D00720436D644E4120000013
:1069F000D4D007204E6F20416E737765722E2041F0
:106A0000646472202532582C20436D642020253286
:106A1000582E0D0A00000000C033001000C00720EF
:106A2000B0D00720B4D00720397832A0FDF72AFF74
:106A300032480068007850B131A0FDF723FF31469D
:106A40003846FDF744FFAFF22810FDF71BFF4FF06B
:106A5000FF30F1E52DE9F04116460D46074653B1EA
:106A6000FFF7B8FE591C884208D2324629463846FC
:106A7000BDE8F04114E74FF0FF30DDE523481E226A
:106A8000B0F8E41C1944B1FBF2F302FB131101EB63
:106A9000C102C2EB811100EB41042A46394620466F
:106AA00007F0CBFA1A4865860068007884F8680019
:106AB000184800680088A4F86A0084F86C60002018
:106AC000BAE570B50C460346FFF784FE002810D0E7
:106AD0000E48B0F8E41C01EBC102C2EB811100EBDF
:106AE000410505F134002246194607F0A6FAA5F83B
:106AF000664070BD64702025640D0A00DCD007205C
:106B000044726F7020436D6420000000D0DA0720CB
:106B1000B0D00720B4D00720891F8AB210B5811CDD
:106B20000120FCF7E8FA0121BDE810400846FCF717
:106B30001EBB10B5052001F056F9062001F053F9EF
:106B4000012001F050F9022001F04DF972B6002049
:106B5000FE490860BDE81040FBF780BBF8B504466D
:106B60004088ADF8000085B226792178B5F57A7FA6
:106B70004FF000000CD3FCF774FA607840F080010D
:106B80000020FCF76EFA02210020FCF76AFA13E0FD
:106B9000FCF767FA61780020FCF763FA29460020C9
:106BA000FCF78EFA31460020FCF75BFAE8483246E3
:106BB00041190020FCF79FFABDE8F8400020FCF7DF
:106BC000FCBA2DE9F05F8346E1480025924600EBD0
:106BD00001092E46DFF87C83DF4F2BE006EBC60170
:106BE00008EB81045146238B4846626905F027F87B
:106BF000F0B1E069012801D010B119E001251CE0D5
:106C0000236AA3B16169B1EB09000ED4AAEB0001BC
:106C1000CAB2218B914206D80BEB0001204698475F
:106C200005000AD104E0032507E0022505E0002560
:106C3000761CB6B238888642D0D32846BDE8F09F8D
:106C400010B5002306E000BF11F8014B5B1C00F8F3
:106C5000014B9BB29342F7D310BDF0B50446C1B0CF
:106C60004088ADF800012679611D3246684607F07C
:106C7000E4F9BDF8001132460F466846FFF7A1FF60
:106C8000050012D021780020FCF7EBF9607840F085
:106C900080010020FCF7E5F929460020FCF7E1F926
:106CA0000020FCF78AFA41B0F0BDA94832463844CA
:106CB0006946FFF7C5FF21780020FCF7D2F961781B
:106CC0000020FCF7CEF90222A11C0020FCF713FAE9
:106CD0000122211D0020FCF70EFA3246611D002022
:106CE000FCF709FADCE72DE9F04104468678D0F894
:106CF0000370D0F807000CF03FFF054638460CF053
:106D00003BFF02462B46314694A0FDF7BBFD2178A0
:106D10000020FCF7A6F961780020FCF7A2F9BDE895
:106D2000F0410020FCF749BAF8B5C27804468778EC
:106D30008088ADF800008F488F49BDF800300068AA
:106D40000968154600880988584390FBF1F086B21F
:106D500039468AA00096FDF795FD4FF00C0067B10B
:106D6000FFF760FA04F0B2FE304604F0B0FE2846A9
:106D700004F0D3FE04F0D8FE03E0FFF778FA04F045
:106D800086FE21780020FCF76CF961780020FCF782
:106D900068F9BDE8F8400020FCF70FBA10B50446CA
:106DA00080480121002201707F4802606A48038800
:106DB0007EA0FDF767FD844940F6A1700861217847
:106DC0000020FCF74EF961780020FCF74AF9BDE895
:106DD00010400020FCF7F1B930B593B000210E91BE
:106DE0000F91109104460C910D918DF828100B9184
:106DF0008DF824101C2102A807F0B8F9D4F802007D
:106E0000119009A90BA8CDE900010AAB10AA0CA9A1
:106E100011A8FDF722F9050014D1119802900F2254
:106E20000CA903A807F04EF91098CDF81A009DF8A8
:106E300028008DF81E000B98CDF81F009DF8240047
:106E40008DF8230021780020FCF70BF961780020F1
:106E5000FCF707F9E9B20020FCF703F91C2202A9AC
:106E60000020FCF748F90020FCF7A7F913B030BD6B
:106E700010B5044655A0FDF705FD21780020FCF76C
:106E8000F0F861780020FCF7ECF8BDE81040002035
:106E9000FCF793B930B585B004461421684607F075
:106EA00065F9A278E11C684607F0C7F86846FDF767
:106EB0008EF8050004D50246694648A0FDF7E2FCBD
:106EC00021780020FCF7CDF861780020FCF7C9F8A4
:106ED000E9B20020FCF7C5F80020FCF76EF905B018
:106EE00030BD30B587B005461421684607F03EF93D
:106EF000AA78E91C684607F0A0F86846FDF767F82D
:106F0000020003D569463AA0FDF7BCFC05A9684616
:106F1000FCF7A0FB040017D00246694639A0FDF734
:106F2000B1FC29780020FCF79CF869780020FCF778
:106F300098F8E1B20020FCF794F89DF814100020B6
:106F4000FCF78FF800206BE06EE0000008ED00E039
:106F50002C0608200CEA0720A2D00720476F546FA8
:106F600020656E2025642078202564207920256402
:106F70000D0A000074D1072070D107204672436FBC
:106F80006E76205374202564205265762025642077
:106F900053706565642025642046722025640D0ABF
:106FA000000000007CD10720FC03001051416C6CF4
:106FB0006F635461626C652E2E2E2025642025643B
:106FC0002025640D0A000000C033001046535F53B3
:106FD000657446496E666F0D0A00000046535F44B3
:106FE000656C65746520257320723A25640D0A006E
:106FF00046535F43722044656C20257320723A2506
:10700000640D0A0046535F43722041737369676ED3
:10701000202573207265733A2564200D0A00000054
:10702000FCF7CBF807B030BD9DF91400FCF748FB26
:10703000040008D502466946FAA0FDF723FC05A81E
:10704000FCF794FF6DE703469DF914206946FBA009
:10705000FDF718FC65E730B587B00546142102A896
:1070600007F084F8AA78E91C02A806F0E6FF01A957
:1070700002A8FCF7EFFA040003D0024602A9F6A02A
:1070800014E09DF90400FCF71BFB04000AD501A8DD
:10709000FCF76CFF9DF90430224602A9F7A0FDF72A
:1070A000F1FB05E09DF9042002A9FBA0FDF7EAFB36
:1070B00029780020FBF7D5FF69780020FBF7D1FF86
:1070C000E1B20020FBF7CDFF9DF804100020FBF794
:1070D000C8FF0020FCF771F8A4E738B590F902105A
:1070E00005468DF80010F2A0FDF7CCFB9DF90000DD
:1070F000FCF7E6FA040009D56846FCF737FF9DF96E
:1071000000202146F0A0FDF7BDFB04E09DF9001032
:10711000F3A0FDF7B7FB29780020FBF7A2FF697801
:107120000020FBF79EFFE1B20020FBF79AFF9DF8DD
:1071300000100020FBF795FF0020FCF73EF838BD5B
:1071400030B587B005461421684607F00FF8AA78D5
:10715000E91C684606F071FF05A96846FCF77AFA53
:10716000040003D002466946E2A00DE09DF9140038
:10717000FCF7F7FA040003D502466946E5A003E0F0
:107180009DF914206946E8A0FDF77CFB29780020D2
:10719000FBF767FF69780020FBF763FFE1B200208F
:1071A000FBF75FFF9DF814100020FBF75AFF00204B
:1071B000FCF703F836E730B587B00546142102A87E
:1071C00006F0D4FFAA78E91C02A806F036FF01A950
:1071D00002A8FCF73FFA040004D09DF9042002A99C
:1071E000D6A008E09DF90400FCF734FB040004D5A8
:1071F000024602A9D9A0FDF745FB23469DF90420CC
:1072000002A9DBA0FDF73EFB29780020FBF729FF50
:1072100069780020FBF725FFE1B20020FBF721FF92
:107220009DF804100020FBF71CFF0020FBF7C5FFB2
:10723000F8E63EB5044690F90250B0F80300ADF808
:10724000040082B202AB611D2846FDF734FC8DF8C4
:107250000000021E03DA2946CBA0FDF713FB2178BC
:107260000020FBF7FEFE61780020FBF7FAFE01220A
:1072700069460020FBF73FFF0020FBF79EFF3EBD65
:1072800070B50D460646002405E03046FCF73FFB8E
:10729000002803DB641C295D0029F6D170BD30B5E0
:1072A000C1B004464FF48071684606F05FFF94F960
:1072B0000250E278211D684606F0BFFE6946284666
:1072C000FFF7DEFF054621780020FBF7CAFE617854
:1072D0000020FBF7C6FEE9B20020FBF7C2FE00204B
:1072E000FBF76BFF41B030BDF8B50446FF21AC4859
:1072F00006F01AFF94F90270E6786B463246A84908
:107300003846FDF727FB050005D5034632463946CA
:10731000A4A0FDF7B7FA21780020FBF7A2FE617860
:107320000020FBF79EFEE9B20020FBF79AFE3146F3
:107330000020FBF796FE324699490020FBF7DBFE62
:107340000020FBF73AFFF8BD70B5C0B005464FF41A
:107350008071684606F00AFF95F90260322269469C
:107360003046FDF712FB040005D503466A46314658
:1073700093A0FDF787FA29780020FBF772FE697861
:107380000020FBF76EFEE1B20020FBF76AFE6846C4
:1073900006F034FEC1B20020FBF763FE684606F03B
:1073A0002DFE82B269460020FBF7A5FE0020FBF708
:1073B00004FF40B070BD70B5C0B005464FF4807199
:1073C000684606F0D3FE95F90260322269463046DF
:1073D000FDF72FFB040005D503466A46314678A029
:1073E000FDF750FA29780020FBF73BFE6978002072
:1073F000FBF737FEE1B20020FBF733FE684606F0EC
:10740000FDFDC1B20020FBF72CFE684606F0F6FD3C
:1074100082B269460020FBF76EFE0020FBF7CDFE2E
:10742000C7E7000046535F43722052657772697464
:107430006520257320723A25640D0A0046535F4388
:10744000726561746520257320663A256420726533
:10745000733A25640D0A000046535F5265777269DE
:1074600074652046535F41737369676E20257320EE
:107470007265733A25640D0A0000000046535F529E
:1074800065777269746520257320723A25642068D7
:107490002025640D0A00000046535F52657772692B
:1074A000746520257320663A25640D0A00000000EB
:1074B00046535F5265777269746520696E20682053
:1074C00025640D0A0000000046535F52657772691B
:1074D000746520723A256420682025640D0A000036
:1074E00046535F5265777269746520683A25640D6A
:1074F0000A00000046535F417070656E6420465379
:107500005F41737369676E20257320723A25640D9D
:107510000A00000046535F417070656E6420257359
:1075200020723A25640D0A0046535F417070656E03
:107530006420257320663A25640D0A0046535F5285
:10754000657365742046535F41737369676E2025C8
:107550007320663A25640D0A0000000046535F520E
:107560006573657420257320723A25640D0A000046
:1075700046535F526573657420257320683A25640D
:1075800020723A25640D0A0046535F57726974658C
:1075900020663A256420723A25640D0A0000000036
:1075A000BAE7072046535F5265616420663A256456
:1075B00020732564207265733A25640D0A0000006B
:1075C00046535F526561644C6E20663A25642062C2
:1075D00075663A2573207265733A25640D0A0000BA
:1075E00038B5044690F902006946FCF7C6FD054629
:1075F00021780020FBF735FD61780020FBF731FD95
:10760000E9B20020FBF72DFD042269460020FBF7BC
:1076100072FD0020FBF7D1FD38BD2DE9F04190F956
:107620000270D0F80360044631463846FCF7AAFBE6
:10763000050005D5034632463946FEA0FDF722F97E
:1076400021780020FBF70DFD61780020FBF709FD94
:10765000E9B20020FBF705FDBDE8F0410020FBF793
:10766000ACBD38B5054680788DF800006846FCF75B
:107670007DFC040005D502469DF90010F5A0FDF73C
:1076800001F929780020FBF7ECFC69780020FBF772
:10769000E8FCE1B20020FBF7E4FC0020FBF78DFDE5
:1076A00038BD10B5044604F0C3FB21780020FBF779
:1076B000D8FC61780020FBF7D4FCBDE81040002026
:1076C000FBF77BBD10B5044604F051FB05F022FF2B
:1076D00005F09EFFFEF70FFF21780020FBF7C1FCAD
:1076E00061780020FBF7BDFCBDE810400020FBF7EF
:1076F00064BD10B5052000F076FB062000F073FB9A
:10770000012000F070FB022000F06DFB72B600203B
:10771000D6490860BDE810404FF40050FAF79EBD0E
:1077200070B50446FBF7CAFE64214843D049096896
:10773000B0FBF1F0C6B2FBF710FF64214843CD491E
:107740000988B0FBF1F0C5B221780020FBF789FC75
:1077500061780020FBF785FC31460020FBF781FCB7
:1077600029460020FBF77DFCBDE870400020FBF7B8
:1077700024BD70B50546C0A0FDF784F8FEF751FAA8
:10778000FBF772FD10F0FF0414D02146BEA0FDF7F8
:1077900079F829780020FBF764FC69780020FBF772
:1077A00060FC21460020FBF75CFCBDE87040002037
:1077B000FBF703BDBAA0FDF765F8EAE710B504468C
:1077C00001780020FBF74DFC61780020FBF749FCB5
:1077D000BDE810400020FBF7F0BC10B5044601786E
:1077E0000020FBF73EFC61780020FBF73AFCBDE887
:1077F00010400020FBF7E1BC10B5044601780020E2
:10780000FBF72FFC61780020FBF72BFCBDE8104054
:107810000020FBF7D2BC70B506468578A44888B036
:10782000008885420BD34FF6FF70ADF8140000209E
:10783000ADF818001421684606F098FC11E09D4848
:1078400005EBC50100EB810414222146684606F0D1
:1078500039FCA08A9849401AADF81400208BADF885
:10786000180031780020FBF7FCFB71780020FBF753
:10787000F8FB29460020FBF7F4FB022205A90020B3
:10788000FBF739FC022206A90020FBF734FC142286
:1078900069460020FBF72FFC0020FBF78EFC08B0A8
:1078A00070BD38B504464FF00131052283A0009128
:1078B000FCF7E8FF21780020FBF7D3FB617800207C
:1078C000FBF7CFFB042269460020FBF714FC0020E5
:1078D000FBF773FC38BD38B504467F4881680091DA
:1078E000436A7E48027E7E4801787EA0FCF7CAFF8C
:1078F00021780020FBF7B5FB61780020FBF7B1FB96
:10790000BDE838400020FBF758BC10B504460178AC
:107910000020FBF7A6FB61780020FBF7A2FB79486B
:10792000EC2201680020FBF7E6FBBDE810400020D8
:10793000FBF743BC38B58178C378054631B10129DE
:1079400007D0022907D0032908D106E04FF04022D2
:1079500004E0614A02E06C4A00E06C4A33B1012B5A
:1079600007D0022B08D0032B0BD108E002F118043A
:1079700007E002F11C0404E002F1200401E002F13E
:10798000240420680090926861A0FCF77BFF2978AE
:107990000020FBF766FB69780020FBF762FBBDE87F
:1079A00038400020FBF709BC10B5044602F096FBF6
:1079B00021780020FBF755FB61780020FBF751FB95
:1079C000BDE810400020FBF7F8BB10B50446C178B5
:1079D000807811B1FEF726FC01E0FEF748FC217823
:1079E0000020FBF73EFB61780020FBF73AFBBDE887
:1079F00010400020FBF7E1BB70B504468078FEF72D
:107A0000C8FCC5B2A1782A4646A0FCF73BFF217806
:107A10000020FBF726FB61780020FBF722FBA17812
:107A20000020FBF71EFB29460020FBF71AFB002075
:107A300082E0000046535F5365656B20663A25641B
:107A400020706F733A2564207265733A25640D0ABD
:107A50000000000046535F436C6F736520663A2553
:107A600064207265733A25640D0A000008ED00E099
:107A700020C0072012C00720466C5F42756C6B4522
:107A8000726173650D0A0000465320496E697420C7
:107A90004661756C742E204572722025640D0A00B3
:107AA000465320496E6974204F6B2E0D0A0000006A
:107AB000A2D007200CEA07202C060820506F6C6922
:107AC000736820282530385829206275696C642035
